{
  "contractName": "Auth",
  "abi": [
    {
      "inputs": [
        {
          "internalType": "address",
          "name": "_adr",
          "type": "address"
        },
        {
          "internalType": "string",
          "name": "name",
          "type": "string"
        },
        {
          "internalType": "string",
          "name": "pass",
          "type": "string"
        }
      ],
      "name": "Register",
      "outputs": [
        {
          "internalType": "bool",
          "name": "",
          "type": "bool"
        }
      ],
      "stateMutability": "nonpayable",
      "type": "function"
    },
    {
      "inputs": [
        {
          "internalType": "address",
          "name": "_adr",
          "type": "address"
        },
        {
          "internalType": "string",
          "name": "_pass",
          "type": "string"
        }
      ],
      "name": "LogIn",
      "outputs": [
        {
          "internalType": "bool",
          "name": "",
          "type": "bool"
        }
      ],
      "stateMutability": "nonpayable",
      "type": "function"
    },
    {
      "inputs": [
        {
          "internalType": "address",
          "name": "_adr",
          "type": "address"
        }
      ],
      "name": "getPass",
      "outputs": [
        {
          "internalType": "bytes32",
          "name": "",
          "type": "bytes32"
        }
      ],
      "stateMutability": "view",
      "type": "function",
      "constant": true
    },
    {
      "inputs": [
        {
          "internalType": "address",
          "name": "_adr",
          "type": "address"
        }
      ],
      "name": "LogOut",
      "outputs": [],
      "stateMutability": "nonpayable",
      "type": "function"
    }
  ],
  "bytecode": "0x608060405234801561001057600080fd5b506109c5806100206000396000f3fe608060405234801561001057600080fd5b506004361061004c5760003560e01c80631821796c14610051578063284fb7b814610081578063e3cd7c031461009d578063f20b245a146100cd575b600080fd5b61006b60048036038101906100669190610720565b6100fd565b6040516100789190610797565b60405180910390f35b61009b600480360381019061009691906107b2565b6101db565b005b6100b760048036038101906100b291906107b2565b610238565b6040516100c491906107f8565b60405180910390f35b6100e760048036038101906100e29190610813565b610283565b6040516100f49190610797565b60405180910390f35b60008060008473ffffffffffffffffffffffffffffffffffffffff1673ffffffffffffffffffffffffffffffffffffffff16815260200190815260200160002060020154826040516020016101529190610918565b60405160208183030381529060405280519060200120036101d05760016000808573ffffffffffffffffffffffffffffffffffffffff1673ffffffffffffffffffffffffffffffffffffffff16815260200190815260200160002060030160006101000a81548160ff021916908315150217905550600190506101d5565b600090505b92915050565b60008060008373ffffffffffffffffffffffffffffffffffffffff1673ffffffffffffffffffffffffffffffffffffffff16815260200190815260200160002060030160006101000a81548160ff02191690831515021790555050565b60008060008373ffffffffffffffffffffffffffffffffffffffff1673ffffffffffffffffffffffffffffffffffffffff168152602001908152602001600020600201549050919050565b60003373ffffffffffffffffffffffffffffffffffffffff166000808673ffffffffffffffffffffffffffffffffffffffff1673ffffffffffffffffffffffffffffffffffffffff16815260200190815260200160002060000160009054906101000a900473ffffffffffffffffffffffffffffffffffffffff1673ffffffffffffffffffffffffffffffffffffffff160361031e57600080fd5b836000808673ffffffffffffffffffffffffffffffffffffffff1673ffffffffffffffffffffffffffffffffffffffff16815260200190815260200160002060000160006101000a81548173ffffffffffffffffffffffffffffffffffffffff021916908373ffffffffffffffffffffffffffffffffffffffff160217905550826000808673ffffffffffffffffffffffffffffffffffffffff1673ffffffffffffffffffffffffffffffffffffffff16815260200190815260200160002060010190805190602001906103f39291906104c5565b50816040516020016104059190610918565b604051602081830303815290604052805190602001206000808673ffffffffffffffffffffffffffffffffffffffff1673ffffffffffffffffffffffffffffffffffffffff1681526020019081526020016000206002018190555060008060008673ffffffffffffffffffffffffffffffffffffffff1673ffffffffffffffffffffffffffffffffffffffff16815260200190815260200160002060030160006101000a81548160ff021916908315150217905550600190509392505050565b8280546104d19061095e565b90600052602060002090601f0160209004810192826104f3576000855561053a565b82601f1061050c57805160ff191683800117855561053a565b8280016001018555821561053a579182015b8281111561053957825182559160200191906001019061051e565b5b509050610547919061054b565b5090565b5b8082111561056457600081600090555060010161054c565b5090565b6000604051905090565b600080fd5b600080fd5b600073ffffffffffffffffffffffffffffffffffffffff82169050919050565b60006105a78261057c565b9050919050565b6105b78161059c565b81146105c257600080fd5b50565b6000813590506105d4816105ae565b92915050565b600080fd5b600080fd5b6000601f19601f8301169050919050565b7f4e487b7100000000000000000000000000000000000000000000000000000000600052604160045260246000fd5b61062d826105e4565b810181811067ffffffffffffffff8211171561064c5761064b6105f5565b5b80604052505050565b600061065f610568565b905061066b8282610624565b919050565b600067ffffffffffffffff82111561068b5761068a6105f5565b5b610694826105e4565b9050602081019050919050565b82818337600083830152505050565b60006106c36106be84610670565b610655565b9050828152602081018484840111156106df576106de6105df565b5b6106ea8482856106a1565b509392505050565b600082601f830112610707576107066105da565b5b81356107178482602086016106b0565b91505092915050565b6000806040838503121561073757610736610572565b5b6000610745858286016105c5565b925050602083013567ffffffffffffffff81111561076657610765610577565b5b610772858286016106f2565b9150509250929050565b60008115159050919050565b6107918161077c565b82525050565b60006020820190506107ac6000830184610788565b92915050565b6000602082840312156107c8576107c7610572565b5b60006107d6848285016105c5565b91505092915050565b6000819050919050565b6107f2816107df565b82525050565b600060208201905061080d60008301846107e9565b92915050565b60008060006060848603121561082c5761082b610572565b5b600061083a868287016105c5565b935050602084013567ffffffffffffffff81111561085b5761085a610577565b5b610867868287016106f2565b925050604084013567ffffffffffffffff81111561088857610887610577565b5b610894868287016106f2565b9150509250925092565b600081519050919050565b600081905092915050565b60005b838110156108d25780820151818401526020810190506108b7565b838111156108e1576000848401525b50505050565b60006108f28261089e565b6108fc81856108a9565b935061090c8185602086016108b4565b80840191505092915050565b600061092482846108e7565b915081905092915050565b7f4e487b7100000000000000000000000000000000000000000000000000000000600052602260045260246000fd5b6000600282049050600182168061097657607f821691505b6020821081036109895761098861092f565b5b5091905056fea2646970667358221220b97c58a01956451c47ad3c95443d0fed8f277a044b19d6d14e54df9e34ac7a7f64736f6c634300080d0033",
  "immutableReferences": {},
  "source": "// SPDX-License-Identifier: GPL-3.0\r\n\r\npragma solidity >=0.5.0 <0.9.0;\r\n\r\ncontract Auth{\r\n    struct UserSchema{\r\n        address adr;\r\n        string Username;\r\n        bytes32 password;\r\n        bool isLoggedIn;\r\n    }\r\n\r\n    mapping(address => UserSchema) User;\r\n\r\n    function Register(address _adr,string memory name,string memory pass) public returns (bool){\r\n        require(User[_adr].adr!=msg.sender);\r\n        User[_adr].adr = _adr;\r\n        User[_adr].Username = name;\r\n        User[_adr].password = keccak256(abi.encodePacked(pass));\r\n        User[_adr].isLoggedIn = false;\r\n        return true;\r\n    }\r\n    \r\n    function LogIn(address _adr,string memory _pass) public returns(bool){\r\n        // return true;\r\n        if(keccak256(abi.encodePacked(_pass)) == User[_adr].password){\r\n            User[_adr].isLoggedIn = true;\r\n            return true;\r\n        }else{\r\n            return false;\r\n        }\r\n    }\r\n    function getPass(address _adr) public view returns (bytes32){\r\n        return User[_adr].password;\r\n    }\r\n    function LogOut(address _adr) public{\r\n        User[_adr].isLoggedIn = false;\r\n    }\r\n}",
  "sourcePath": "C:\\truffle-web3\\truffle\\contracts\\Auth.sol",
  "compiler": {
    "name": "solc",
    "version": "0.8.13+commit.abaa5c0e.Emscripten.clang"
  },
  "schemaVersion": "3.4.6",
  "updatedAt": "2022-04-09T08:33:25.999Z",
  "networkType": "ethereum",
  "devdoc": {
    "kind": "dev",
    "methods": {},
    "version": 1
  },
  "userdoc": {
    "kind": "user",
    "methods": {},
    "version": 1
  }
}